:020000040000FA
:100000000200E57597DE7597AD222202000EC0E072
:10001000C0D075D000C000C004C005C006C007C273
:100020008D5388EFAF0BAE0AAD09AC087802120011
:10003000D28F8C758A00438810B280B290D007D0DE
:1000400006D005D004D000D0D0D0E03275E60875D7
:10005000A88222020056C0E0C0D075D000C006C001
:1000600007C2ED750B00750A00750900750800AF31
:10007000BDAEBEE48F0B8E0AF509F508D007D00699
:10008000D0D0D0E03212000312010112012212017D
:100090001E1200F41201261200A31200BF12010B5F
:1000A00002004CAF885388AF758CFF758AFF758D41
:1000B0009C758B08EF5440FEEF54104E428822E5A9
:1000C000C8540453C8FB75CBF675CA0843C804422C
:1000D000C822E8600FECC313FCED13FDEE13FEEF36
:1000E00013FFD8F12212000A787FE4F6D8FD75815B
:1000F0000B02011575BB0175BCF953E8F843E881A3
:100100002275A40175F1FD75D40222758E0D7589D5
:100110000143881022120085C290C28080FE75E3E0
:0A012000402275A5032275D10822C4
:00000001FF
